:02000000BE2917
:0400060000000800EE
:10000A00073084000008000883120313F0007012FE
:06001A00700880000800E0
:10002000073084000008000883120313F000F01169
:06003000700880000800CA
:10003600013083120313BA000030BB008030B800D1
:10004600B901380839040319512803200320032075
:1000560003201020831687110320032083123808FB
:100066003705F00000303905F100700871040319F6
:100076003F288316071642280520831607120320F9
:10008600032087158312341087194D28341C4C28F9
:100096004D284728B90CB80CB9132428BA01BB015E
:1000A6000320032010208316871103200320071640
:1000B6000320032003200320871583123410871999
:1000C6006828341C672868286228BA01BB01032007
:1000D6000320071E6F283A14032003200320032061
:1000E60003200320032003200320032003200320F2
:1000F60003200320032003201020831687110520E8
:0C0106008316071283123A08F00008006C
:1001120083120313B901BA018030BB000030BC0066
:100122003B083C040319B428032003208316071656
:10013200032003208715831234108719A428341C46
:10014200A328A4289E28071EAA283B08B9043C0815
:10015200BA04032003201020831687118312BC0CDB
:10016200BB0CBC13912883160716032003208312AD
:10017200370838040319C02805208316071283168E
:10018200032003208715831234108719CC28341CCE
:10019200CB28CC28C62803200320102083168711E1
:1001A2000320032005208316071283123908F0006A
:0201B200080043
:0E01B4008312031333088A0032088200080009
:1001C2008316031307160320032087150320032039
:1001D200052083160712032003201020831687119F
:0201E200080013
:1001E4008316031387150716831234108719FE2804
:0A01F400341CFD28FE28F82808003E
:1001FE00052083160712032003208715831234105F
:10020E0087190D29341C0C290D29072903200320D9
:10021E000320032003200320032003208316071648
:06022E000320032008007C
:10023400E120A0308312B7001B207008003A031994
:100244002529E1201B2983123508B7001B207008DB
:10025400003A03192E2925293608B7001B207008F7
:0C026400003A031936292E29FF2008005B
:10027000E120A0308312B7001B207008003A031958
:100280004329E120392983123508B7001B20E120DA
:10029000A1308312B7001B20B701B8018920700874
:0C02A000B600FF2083123608F0000800B2
:1002AC00831203133508003A031D5F292008F00060
:1002BC009E293508013A031D66292108F0009E2964
:1002CC003508023A031D6D292208F0009E293508D5
:1002DC00033A031D74292308F0009E293508043ABB
:1002EC00031D7B292408F0009E293508053A031DBF
:1002FC0082292508F0009E293508063A031D892914
:10030C002608F0009E293508073A031D9029270876
:10031C00F0009E293508083A031D97292808F0009B
:10032C009E293508093A031D9E292908F0009E29AB
:02033C000800B7
:04033E00F2200800A1
:1003420083120313F8010830FC00700DF80D7408D5
:10035200F8020318AE29F8070310F00DFC0BA629CA
:02036200080091
:10036400DA208A110A128000840AB20A0319B30A35
:08037400F003031DB22908008B
:10037C00FB3083120313A0001830A100ED30A20053
:10038C00BD30A3001E30A400B730A500F730A60086
:10039C009930A700FF30A800BF30A900AA01AB011B
:1003AC00AC01AD01AE01AF01B001B1018316850105
:1003BC008601870183128701850107308316870028
:1003CC009F210D30FC00FB30FD00FD0BEB29FC0BDD
:1003DC00EB29000000000A30B50038217008AA0093
:1003EC000230B50038217008AF000A30F4002A083A
:1003FC00F000A1217808F0007008AE000A30F4007B
:10040C002A08F000A1217008B1000A30F4002F086E
:10041C00F000A1217808F0007008B0000A30F40058
:10042C002F08F000A1217008AC008312871C7F2AD2
:10043C000130AB00AF032F08003C031C272A3B30D4
:10044C00AF000A30F4002F08F000A1217808F0006A
:10045C007008B0000A30F4002F08F000A1217008D9
:10046C00AC00AD012D08193C031C7E2A3108B500E7
:10047C0056217008860005140430FC00E430FD00A1
:10048C00FD0B462AFC0B462A000005102E08B50071
:10049C0056217008860087160430FC00E430FD00FD
:1004AC00FD0B562AFC0B562A000087122C08B500AF
:1004BC0056217008860007170430FC00E430FD005C
:1004CC00FD0B662AFC0B662A000007133008B500EA
:1004DC0056217008860087170430FC00E430FD00BC
:1004EC00FD0B762AFC0B762A00008713AD0A382AFE
:1004FC00842B071CE22A0130AB00AA0A0D302A0219
:10050C00031C8A2A0130AA000A30F4002A08F000E1
:10051C00A1217808F0007008AE000A30F4002A0817
:10052C00F000A1217008B100AD012D08193C031C8D
:10053C00E12A3108B50056217008860005140430F4
:10054C00FC00E430FD00FD0BA92AFC0BA92A0000DD
:10055C0005102E08B5005621700886008716043049
:10056C00FC00E430FD00FD0BB92AFC0BB92A00009D
:10057C0087122C08B5005621700886000717043026
:10058C00FC00E430FD00FD0BC92AFC0BC92A00005D
:10059C0007133008B5005621700886008717043001
:1005AC00FC00E430FD00FD0BD92AFC0BD92A00001D
:1005BC008713AD0A9B2A842B071D442B0130AB00FB
:1005CC00AF0A3C302F02031CEC2AAF010A30F400B6
:1005DC002F08F000A1217808F0007008B0000A3054
:1005EC00F4002F08F000A1217008AC00AD012D081B
:1005FC00193C031C432B3108B500562170088600AA
:10060C0005140430FC00E430FD00FD0B0B2BFC0B3F
:10061C000B2B000005102E08B50056217008860023
:10062C0087160430FC00E430FD00FD0B1B2BFC0B8B
:10063C001B2B000087122C08B50056217008860071
:10064C0007170430FC00E430FD00FD0B2B2BFC0BDA
:10065C002B2B000007133008B500562170088600BC
:10066C0087170430FC00E430FD00FD0B3B2BFC0B2A
:10067C003B2B00008713AD0AFD2A842B3108B500F3
:10068C0056217008860005140430FC00E430FD008F
:10069C00FD0B4E2BFC0B4E2B000005102E08B5004D
:1006AC0056217008860087160430FC00E430FD00EB
:1006BC00FD0B5E2BFC0B5E2B000087122C08B5008B
:1006CC0056217008860007170430FC00E430FD004A
:1006DC00FD0B6E2BFC0B6E2B000007133008B500C6
:1006EC0056217008860087170430FC00E430FD00AA
:1006FC00FD0B7E2BFC0B7E2B000087132B08013A85
:10070C00031D9A2B07199A2B07189A2B87189A2BCB
:10071C00AB010A30B5002A08B6001A210230831248
:0C072C00B5002F08B6001A211B2A9B2BD9
:02400E005A0056
:00000001FF
